:020000040800F2
:1000000038080020490100081B08000817080008EC
:1000100000000000000000000000000000000000E0
:100020000000000000000000000000001F080008A1
:1000300000000000000000001D0800087108000812
:100040005B0100085B0100085B0100085B01000820
:100050005B0100085B0100085B0100085B01000810
:10006000000000005B0100085B01000800000000C8
:100070005B0100085B0100085B0100080000000054
:100080005B0100085B010008000000005B01000844
:10009000000000005B0100085B0100085B01000834
:1000A000000000005B0100085B0100085B01000824
:1000B0005B010008000000005B0100080000000078
:1000C00000F002F800F030F80CA030C8083824180E
:1000D0002D18671EA246AB4654465D46AC4201D180
:1000E00000F022F87E460F3EB6460FCC0126334282
:1000F00000D0FB1A3343A246AB461847540C00000D
:10010000740C00000023002400250026103A01D3BF
:1001100078C1FBD8520700D330C100D50B607047BF
:100120001FB51FBD10B510BD00F0E3F81146FFF775
:10013000F7FF00F02DF900F0FBF803B4FFF7F2FF32
:1001400003BC00F001F9000007488047074800475A
:10015000FEE7FEE7FEE7FEE7FEE7FEE704480549A7
:10016000054A064B7047000079080008C1000008E6
:10017000380200203808002038040020380400200D
:10018000002203098B422CD3030A8B4211D3002394
:100190009C464EE003460B433CD4002243088B426E
:1001A00031D303098B421CD3030A8B4201D39446FB
:1001B0003FE0C3098B4201D3CB01C01A52418309EE
:1001C0008B4201D38B01C01A524143098B4201D3A8
:1001D0004B01C01A524103098B4201D30B01C01AD3
:1001E0005241C3088B4201D3CB00C01A524183084D
:1001F0008B4201D38B00C01A524143088B4201D37A
:100200004B00C01A5241411A00D2014652411046D9
:1002100070475DE0CA0F00D04942031000D340424E
:1002200053409C46002203098B422DD3030A8B4284
:1002300012D38901FC2212BA030A8B420CD3890122
:1002400092118B4208D3890192118B4204D3890108
:100250003AD0921100E08909C3098B4201D3CB0146
:10026000C01A524183098B4201D38B01C01A5241FB
:1002700043098B4201D34B01C01A524103098B42FF
:1002800001D30B01C01A5241C3088B4201D3CB00EA
:10029000C01A524183088B4201D38B00C01A5241CD
:1002A000D9D243088B4201D34B00C01A5241411AA4
:1002B00000D201465241104663465B1001D34042D2
:1002C000002B00D54942704763465B1000D3404283
:1002D00001B50549002802DC491C084000E0084639
:1002E000C046C04602BD00BFFFFFFF7F704770479A
:1002F0007047754600F024F8AE460500694653463F
:10030000C008C000854618B020B5FFF727FF60BCC5
:10031000B64600260027C0C5C0C5C0C5C0C5C0C5FB
:10032000C0C5C0C5C0C5403D490849008D4670479D
:1003300010B50446C046C0462046FFF7FEFE10BD7D
:10034000004870479001002001491820ABBEFEE72D
:1003500026000200704730B58C180278401C130745
:100360001B0F01D10378401C120906D10278401CF2
:1003700003E00578401C0D70491C5B1EF9D101E0BB
:100380000B70491C521EFBD1A142E6D3002030BDA8
:1003900080B582B00120C006009001A9002008703D
:1003A000FFE701A800782F280DDCFFE7009801A9DE
:1003B00009788A00805809498850FFE70198401C55
:1003C00001A90870EDE7012040070349086000F02B
:1003D0005FFC002002B080BD08ED00E000000020BE
:1003E00080B584B0039000F099F9029003980190D1
:1003F0000198401C002806D0FFE7F84801680198E2
:1004000040180190FFE7FFE700F088F90299401AD1
:100410000199884201D2FFE7F6E704B080BDC046EB
:1004200088B00790069100200590FFE706980068C5
:100430000599C840002800D132E106980068059A65
:1004400001219140084004900498002800D123E144
:1004500006984068022805D0FFE7069840681228F1
:1004600020D1FFE707980599C90889004018006A5C
:10047000039005984007C00E0F21814003988843E0
:1004800003900698016905984007C00E81400398C3
:100490000843039003980799059AD2089200891897
:1004A0000862FFE707980068039005984100032061
:1004B00002468A4003999143039106994968014095
:1004C00005984000814003980843039003980799DA
:1004D00008600698406801280FD0FFE7069840683A
:1004E00002280AD0FFE706984068112805D0FFE7E8
:1004F0000698406812282CD1FFE70798806803907F
:100500000598400003218140039888430390069892
:10051000C168059840008140039808430390039800
:1005200007998860079840680390059801218140E9
:1005300003988843039006984068102108400109F9
:1005400005988140039808430390039807994860F1
:10055000FFE70798C0680390059840000321814099
:10056000039888430390069881680598400081406D
:1005700003980843039003980799C8600698C079C8
:10058000C006002800D486E0059803218843454929
:100590004058039005988007C00E0F2181400398B2
:1005A00088430390079805210907884203D1FFE794
:1005B000002002900CE007993B4A0120022300939F
:1005C0009142019001D00098019001980290FFE7BC
:1005D000029905988007C00E814003980843039054
:1005E00003980599032291432E4A88502F480068AA
:1005F0000390049903988843039006988079C00774
:10060000002805D0FFE70499039808430390FFE70B
:1006100003982649086026480068039004990398C7
:1006200088430390069880798007002805D5FFE766
:100630000499039808430390FFE703981C49086056
:100640001C48006803900499039888430390069817
:100650008079C006002805D5FFE704990398084370
:100660000390FFE70398134908601348006803905C
:10067000049903988843039006988079800600289F
:1006800005D5FFE70499039808430390FFE7039813
:1006900009490860FFE7FFE70598401C0590C5E69B
:1006A00008B07047601802400004005080180240F3
:1006B00084180240001802400418024084B00091DF
:1006C00001460098039102A90880039800690988EF
:1006D000084204D0FFE701A90120087003E001A946
:1006E00000200870FFE701A8007804B0704783B0CD
:1006F000029001A80180684602700078002805D0A9
:10070000FFE701A800880299886104E001A8008839
:1007100002998862FFE703B070470000054800684F
:100720007047C0462D480268024908688018086072
:100730007047C0463002002080B582B001A9002079
:100740000870032000F00EF8002804D0FFE701A98C
:100750000120087002E000F047F8FFE701A80078E8
:1007600002B080BD80B584B0039002A9002008705B
:100770001A480068002829D0FFE71948006801904E
:10078000164801687D20C000FFF7FAFC0146019879
:10079000FFF7F6FC00F037F8002812D1FFE70398C6
:1007A000032809D8FFE703990022D04300F01DF881
:1007B00003980C49086003E002A901200870FFE7D4
:1007C00003E002A901200870FFE703E002A901206D
:1007D0000870FFE702A8007804B080BD8401002003
:1007E000C000002088010020704780B584B0034617
:1007F00003A803700291019200214056029900F073
:1008000053F804B080BD80B582B00190019800F02B
:1008100007F802B080BDFFE7FEE7704770477047FA
:1008200080B584B002900298401E000E002803D0CC
:10083000FFE70120039011E00298401E094908607B
:1008400000200190C043032100F02EF801980649D2
:100850000860064A072111600390FFE7039804B07F
:1008600080BDC04614E000E018E000E010E000E0C9
:1008700080B5FFF757FF80BD074A11680748014060
:100880000748006801430120430319431160C00673
:10089000044908607047C046041002400000FFFF92
:1008A000040FFF1F08ED00E070B582B0024601A8FA
:1008B0000270009100214056002816D4FFE7002462
:1008C00001A908570322D3431840174A80580957F3
:1008D0008C07E50EFF24AC40A043009CA401E4B2C9
:1008E000AC402043194088501AE001A908780F2431
:1008F000204008380322D34318400A4A8058002574
:1009000049578D07EE0EFF25B540A843009DAD0168
:10091000EDB2B54028432140083919408850FFE71F
:1009200002B070BD1CED00E000E400E081B000907A
:1009300000992822885CFE2318408854002001B0CA
:100940007047000010B584B002900298002804D1CE
:10095000FFE70220C043039054E002990020C861E1
:10096000886148610861C860029928228854029A07
:1009700029215054F548405C0006002828D4FFE7A0
:10098000F24901917220C8707420887070204870FC
:10099000762008700020C861886148610861C860DD
:1009A0002022885448621948C862194808631948C7
:1009B0004863194888631948C8632822885C012362
:1009C000184388542922885C802318438854FFE701
:1009D000DE48C16A029AD162016B029A1163416BCF
:1009E000029A5163816B029A9163C06B0299C8634A
:1009F0000298C46A2021415C426A0123A04700207A
:100A00000390FFE7039804B010BDC046210A000818
:100A10001D0B00082D090008850B00083B0C000881
:100A200010B58CB00A9009A801900170089207A92E
:100A30000B700A9A012111610A9A002191610899AB
:100A40000A9AD160007800F075F801460198069185
:100A500000780290002808D0FFE7029801281CD0F7
:100A6000FFE70298022830D047E007A80078012865
:100A70000CD1FFE7FFE72848026801210A43026022
:100A80000068084005900598FFE705E022490868DE
:100A9000012290430860FFE733E007A800780128AF
:100AA0000CD1FFE7FFE71C48026802210A430260FD
:100AB0000068084004900498FFE705E016490868BC
:100AC000022290430860FFE71BE007A80078012896
:100AD0000CD1FFE7FFE71048026820210A430260BB
:100AE0000068084003900398FFE705E00A4908689A
:100AF000202290430860FFE703E00020C0430B90F2
:100B000007E006980A990C31FFF78AFC00200B9049
:100B1000FFE70B980CB010BD3410024081B000907C
:100B200000992822885C012318438854002001B0D2
:100B30007047000084B0014602A801700078009060
:100B4000002808D0FFE70098012808D0FFE70098A8
:100B5000022807D009E005200007019008E00848B6
:100B6000019005E00548019002E00020039002E0BA
:100B700001980390FFE7039804B0704700140050F9
:100B80000004005080B586B0049004982821405C91
:100B9000C007002804D1FFE705A9FC20087027E062
:100BA00004982021405CFFF7C5FF02900298049949
:100BB0008989FFF783FD014601A8017000780128AB
:100BC00004D1FFE703A9012008700DE001A8007817
:100BD000002804D1FFE703A90020087003E003A95F
:100BE000FF200870FFE7FFE7039805A90870FFE7FB
:100BF000002105A8405606B080BD82B0014601A87C
:100C0000017000214056012804D1FFE76946012008
:100C100008700EE0002101A84056002804D1FFE72B
:100C200069460020087003E06946FF200870FFE76E
:100C3000FFE76846007802B0704780B586B0049040
:100C400003A8017004982821405CC007002804D143
:100C5000FFE70320C043059016E004982021405C84
:100C6000FFF768FF01900021009103A84056FFF7AD
:100C7000C4FF02AA10700198049989891278FFF7BD
:100C800036FD00980590FFE7059806B080BD00008E
:100C900080B58CB000200B90FFF74EFD2A480790DE
:100CA000FFF750FE079840300890FFF74BFE07987B
:100CB00080300A90FFF746FE079824490991096B96
:100CC000884709990898096B884709990A98096B18
:100CD0008847FFE71D480390C26B1B480190012124
:100CE00000919047C8200690FFF77AFB0099019881
:100CF000039AD26B4030029090470698FFF770FB42
:100D000000990198039AD26B80300490904706981E
:100D1000FFF766FB01980399CA6B00210591904784
:100D20000698FFF75DFB0298039A0599D26B9047EE
:100D30000698FFF755FB039A04980599D26B9047E4
:100D40000698FFF74DFBC5E7C4000020F001002026
:100D5000700D0008000000209001000056030008FC
:100D6000A00D000890010020A80600000401000862
:100D700001C2091C127A006C65645F724201021C98
:100D800002061C6C65645F674201021C01061C6C54
:100D900065645F624201021C084201820400000097
:04000005080000C12E
:00000001FF
